{
  "contractName": "CropMarket",
  "abi": [
    {
      "constant": true,
      "inputs": [],
      "name": "userCount",
      "outputs": [
        {
          "name": "",
          "type": "uint256"
        }
      ],
      "payable": false,
      "stateMutability": "view",
      "type": "function",
      "signature": "0x07973ccf"
    },
    {
      "constant": true,
      "inputs": [
        {
          "name": "",
          "type": "uint256"
        }
      ],
      "name": "userAccts",
      "outputs": [
        {
          "name": "quantity",
          "type": "uint256"
        },
        {
          "name": "onwer",
          "type": "address"
        }
      ],
      "payable": false,
      "stateMutability": "view",
      "type": "function",
      "signature": "0x0ab2bb13"
    },
    {
      "constant": true,
      "inputs": [
        {
          "name": "",
          "type": "uint256"
        }
      ],
      "name": "trasanctions",
      "outputs": [
        {
          "name": "cropId",
          "type": "uint256"
        },
        {
          "name": "user",
          "type": "address"
        },
        {
          "name": "quantity",
          "type": "uint256"
        }
      ],
      "payable": false,
      "stateMutability": "view",
      "type": "function",
      "signature": "0x508b7bca"
    },
    {
      "constant": true,
      "inputs": [
        {
          "name": "",
          "type": "address"
        }
      ],
      "name": "checkUsers",
      "outputs": [
        {
          "name": "",
          "type": "bool"
        }
      ],
      "payable": false,
      "stateMutability": "view",
      "type": "function",
      "signature": "0x66c8137c"
    },
    {
      "constant": true,
      "inputs": [
        {
          "name": "",
          "type": "uint256"
        }
      ],
      "name": "crops",
      "outputs": [
        {
          "name": "owner",
          "type": "address"
        },
        {
          "name": "quantity",
          "type": "uint256"
        },
        {
          "name": "price",
          "type": "uint256"
        },
        {
          "name": "cropId",
          "type": "uint256"
        }
      ],
      "payable": false,
      "stateMutability": "view",
      "type": "function",
      "signature": "0x70c9f1a5"
    },
    {
      "constant": true,
      "inputs": [],
      "name": "transactionId",
      "outputs": [
        {
          "name": "",
          "type": "uint256"
        }
      ],
      "payable": false,
      "stateMutability": "view",
      "type": "function",
      "signature": "0x7e2f42e7"
    },
    {
      "constant": true,
      "inputs": [
        {
          "name": "",
          "type": "address"
        }
      ],
      "name": "users",
      "outputs": [
        {
          "name": "quantity",
          "type": "uint256"
        },
        {
          "name": "onwer",
          "type": "address"
        }
      ],
      "payable": false,
      "stateMutability": "view",
      "type": "function",
      "signature": "0xa87430ba"
    },
    {
      "constant": true,
      "inputs": [],
      "name": "cropCount",
      "outputs": [
        {
          "name": "",
          "type": "uint256"
        }
      ],
      "payable": false,
      "stateMutability": "view",
      "type": "function",
      "signature": "0xdfd55a2c"
    },
    {
      "anonymous": false,
      "inputs": [
        {
          "indexed": true,
          "name": "cropId",
          "type": "uint256"
        }
      ],
      "name": "NewCropFromFarmer",
      "type": "event",
      "signature": "0x1ca7fef45840b6cc371adb7cfffc72410015b9b1b3cc3e3df05736014a5234b6"
    },
    {
      "anonymous": false,
      "inputs": [
        {
          "indexed": true,
          "name": "cropId",
          "type": "uint256"
        },
        {
          "indexed": true,
          "name": "quantity",
          "type": "uint256"
        },
        {
          "indexed": true,
          "name": "remainingQuantity",
          "type": "uint256"
        }
      ],
      "name": "NewCrop",
      "type": "event",
      "signature": "0xf2763a145925e05b387e603623f8411237e4d7b4f422dc3ba6d5af76b9a6a37c"
    },
    {
      "anonymous": false,
      "inputs": [
        {
          "indexed": true,
          "name": "cropId",
          "type": "uint256"
        },
        {
          "indexed": true,
          "name": "quantity",
          "type": "uint256"
        },
        {
          "indexed": true,
          "name": "owner",
          "type": "address"
        }
      ],
      "name": "NewTransaction",
      "type": "event",
      "signature": "0x2e579d675b9788d6c01820a653f78360c44c369dcdbd443fda9576a23c92f9e2"
    },
    {
      "constant": false,
      "inputs": [
        {
          "name": "quantity",
          "type": "uint256"
        },
        {
          "name": "price",
          "type": "uint256"
        }
      ],
      "name": "releaseStockFarmer",
      "outputs": [],
      "payable": false,
      "stateMutability": "nonpayable",
      "type": "function",
      "signature": "0xfe26553f"
    },
    {
      "constant": false,
      "inputs": [
        {
          "name": "quantity",
          "type": "uint256"
        },
        {
          "name": "price",
          "type": "uint256"
        }
      ],
      "name": "releaseStock",
      "outputs": [],
      "payable": false,
      "stateMutability": "nonpayable",
      "type": "function",
      "signature": "0x9d363396"
    },
    {
      "constant": false,
      "inputs": [
        {
          "name": "cropid",
          "type": "uint256"
        },
        {
          "name": "quantity",
          "type": "uint256"
        }
      ],
      "name": "purchaseStock",
      "outputs": [],
      "payable": true,
      "stateMutability": "payable",
      "type": "function",
      "signature": "0xd53ffbcf"
    }
  ],
  "bytecode": "0x608060405260016000556000600255600160045534801561001f57600080fd5b5061105b8061002f6000396000f3fe6080604052600436106100af576000357c0100000000000000000000000000000000000000000000000000000000900463ffffffff16806307973ccf146100b45780630ab2bb13146100df578063508b7bca1461016157806366c8137c146101ea57806370c9f1a5146102535780637e2f42e7146102e35780639d3633961461030e578063a87430ba14610353578063d53ffbcf146103eb578063dfd55a2c14610423578063fe26553f1461044e575b600080fd5b3480156100c057600080fd5b506100c9610493565b6040518082815260200191505060405180910390f35b3480156100eb57600080fd5b506101186004803603602081101561010257600080fd5b8101908080359060200190929190505050610499565b604051808381526020018273ffffffffffffffffffffffffffffffffffffffff1673ffffffffffffffffffffffffffffffffffffffff1681526020019250505060405180910390f35b34801561016d57600080fd5b5061019a6004803603602081101561018457600080fd5b81019080803590602001909291905050506104dd565b604051808481526020018373ffffffffffffffffffffffffffffffffffffffff1673ffffffffffffffffffffffffffffffffffffffff168152602001828152602001935050505060405180910390f35b3480156101f657600080fd5b506102396004803603602081101561020d57600080fd5b81019080803573ffffffffffffffffffffffffffffffffffffffff169060200190929190505050610527565b604051808215151515815260200191505060405180910390f35b34801561025f57600080fd5b5061028c6004803603602081101561027657600080fd5b8101908080359060200190929190505050610547565b604051808573ffffffffffffffffffffffffffffffffffffffff1673ffffffffffffffffffffffffffffffffffffffff16815260200184815260200183815260200182815260200194505050505060405180910390f35b3480156102ef57600080fd5b506102f8610597565b6040518082815260200191505060405180910390f35b34801561031a57600080fd5b506103516004803603604081101561033157600080fd5b81019080803590602001909291908035906020019092919050505061059d565b005b34801561035f57600080fd5b506103a26004803603602081101561037657600080fd5b81019080803573ffffffffffffffffffffffffffffffffffffffff169060200190929190505050610840565b604051808381526020018273ffffffffffffffffffffffffffffffffffffffff1673ffffffffffffffffffffffffffffffffffffffff1681526020019250505060405180910390f35b6104216004803603604081101561040157600080fd5b810190808035906020019092919080359060200190929190505050610884565b005b34801561042f57600080fd5b50610438610a1c565b6040518082815260200191505060405180910390f35b34801561045a57600080fd5b506104916004803603604081101561047157600080fd5b810190808035906020019092919080359060200190929190505050610a22565b005b60045481565b60066020528060005260406000206000915090508060000154908060010160009054906101000a900473ffffffffffffffffffffffffffffffffffffffff16905082565b60036020528060005260406000206000915090508060000154908060010160009054906101000a900473ffffffffffffffffffffffffffffffffffffffff16908060020154905083565b60076020528060005260406000206000915054906101000a900460ff1681565b60016020528060005260406000206000915090508060000160009054906101000a900473ffffffffffffffffffffffffffffffffffffffff16908060010154908060020154908060030154905084565b60025481565b60011515600760003373ffffffffffffffffffffffffffffffffffffffff1673ffffffffffffffffffffffffffffffffffffffff16815260200190815260200160002060009054906101000a900460ff161515141515610665576040517f08c379a000000000000000000000000000000000000000000000000000000000815260040180806020018281038252601e8152602001807f4e6f742073756666696369656e742053746f636b7320746f207472616465000081525060200191505060405180910390fd5b6000600560003373ffffffffffffffffffffffffffffffffffffffff1673ffffffffffffffffffffffffffffffffffffffff168152602001908152602001600020905080600001548311151515610724576040517f08c379a00000000000000000000000000000000000000000000000000000000081526004018080602001828103825260178152602001807f4e6f742073756666696369656e74207175616e7469747900000000000000000081525060200191505060405180910390fd5b82816000015403816000018190555061073b610fc0565b6080604051908101604052803373ffffffffffffffffffffffffffffffffffffffff168152602001858152602001848152602001600054815250905080600160008054815260200190815260200160002060008201518160000160006101000a81548173ffffffffffffffffffffffffffffffffffffffff021916908373ffffffffffffffffffffffffffffffffffffffff16021790555060208201518160010155604082015181600201556060820151816003015590505060008081548092919060010191905055508160000154846000547ff2763a145925e05b387e603623f8411237e4d7b4f422dc3ba6d5af76b9a6a37c60405160405180910390a450505050565b60056020528060005260406000206000915090508060000154908060010160009054906101000a900473ffffffffffffffffffffffffffffffffffffffff16905082565b600060016000848152602001908152602001600020905080600101548211151515610917576040517f08c379a00000000000000000000000000000000000000000000000000000000081526004018080602001828103825260138152602001807f4e6f7420656e6f756768207175616e746974790000000000000000000000000081525060200191505060405180910390fd5b8060000160009054906101000a900473ffffffffffffffffffffffffffffffffffffffff1673ffffffffffffffffffffffffffffffffffffffff163373ffffffffffffffffffffffffffffffffffffffff16141515156109df576040517f08c379a00000000000000000000000000000000000000000000000000000000081526004018080602001828103825260168152602001807f53656c6c65722063616e6e6f742062652062757965720000000000000000000081525060200191505060405180910390fd5b610a0d8160000160009054906101000a900473ffffffffffffffffffffffffffffffffffffffff1634610b24565b610a178383610b6f565b505050565b60005481565b610a2a610fc0565b6080604051908101604052803373ffffffffffffffffffffffffffffffffffffffff168152602001848152602001838152602001600054815250905080600160008054815260200190815260200160002060008201518160000160006101000a81548173ffffffffffffffffffffffffffffffffffffffff021916908373ffffffffffffffffffffffffffffffffffffffff160217905550602082015181600101556040820151816002015560608201518160030155905050600080815480929190600101919050557f1ca7fef45840b6cc371adb7cfffc72410015b9b1b3cc3e3df05736014a5234b660405160405180910390a2505050565b8173ffffffffffffffffffffffffffffffffffffffff166108fc829081150290604051600060405180830381858888f19350505050158015610b6a573d6000803e3d6000fd5b505050565b6060604051908101604052808381526020013373ffffffffffffffffffffffffffffffffffffffff168152602001828152506003600060025481526020019081526020016000206000820151816000015560208201518160010160006101000a81548173ffffffffffffffffffffffffffffffffffffffff021916908373ffffffffffffffffffffffffffffffffffffffff16021790555060408201518160020155905050600760003373ffffffffffffffffffffffffffffffffffffffff1673ffffffffffffffffffffffffffffffffffffffff16815260200190815260200160002060009054906101000a900460ff161515610e0a57610c6f610fff565b60408051908101604052808381526020013373ffffffffffffffffffffffffffffffffffffffff168152509050806006600060045481526020019081526020016000206000820151816000015560208201518160010160006101000a81548173ffffffffffffffffffffffffffffffffffffffff021916908373ffffffffffffffffffffffffffffffffffffffff16021790555090505060046000815480929190600101919050555080600560003373ffffffffffffffffffffffffffffffffffffffff1673ffffffffffffffffffffffffffffffffffffffff1681526020019081526020016000206000820151816000015560208201518160010160006101000a81548173ffffffffffffffffffffffffffffffffffffffff021916908373ffffffffffffffffffffffffffffffffffffffff1602179055509050506001600760003373ffffffffffffffffffffffffffffffffffffffff1673ffffffffffffffffffffffffffffffffffffffff16815260200190815260200160002060006101000a81548160ff02191690831515021790555050610e5e565b6000600560003373ffffffffffffffffffffffffffffffffffffffff1673ffffffffffffffffffffffffffffffffffffffff1681526020019081526020016000209050818160000154018160000181905550505b6000600160008481526020019081526020016000209050818160010154038160010181905550600760008260000160009054906101000a900473ffffffffffffffffffffffffffffffffffffffff1673ffffffffffffffffffffffffffffffffffffffff1673ffffffffffffffffffffffffffffffffffffffff16815260200190815260200160002060009054906101000a900460ff1615610fbb576000600560008360000160009054906101000a900473ffffffffffffffffffffffffffffffffffffffff1673ffffffffffffffffffffffffffffffffffffffff1673ffffffffffffffffffffffffffffffffffffffff16815260200190815260200160002090508281600001540381600001819055503373ffffffffffffffffffffffffffffffffffffffff168160000154857f2e579d675b9788d6c01820a653f78360c44c369dcdbd443fda9576a23c92f9e260405160405180910390a4505b505050565b608060405190810160405280600073ffffffffffffffffffffffffffffffffffffffff1681526020016000815260200160008152602001600081525090565b604080519081016040528060008152602001600073ffffffffffffffffffffffffffffffffffffffff168152509056fea165627a7a72305820d821a08523aba9cea2e42e4a16a86d846c37e614352567418d38144f9aeafc390029",
  "source": "pragma solidity ^0.5.0;\n\ncontract CropMarket {\n\n    struct Crop{\n        address owner;\n        uint256 quantity;\n        uint256 price;\n        uint cropId;\n    }\n    \n    uint256 public cropCount = 1;\n    mapping(uint256 => Crop) public crops;\n    \n    struct Transaction{\n        uint256 cropId;\n        address user;\n        uint256 quantity;\n    }\n    \n    uint256 public transactionId = 0;\n    mapping(uint256 => Transaction) public trasanctions;\n    \n    struct User{\n        uint256 quantity;\n        address onwer;\n    }\n    \n    uint public userCount = 1;\n    mapping(address => User) public users;\n    mapping(uint => User) public userAccts;\n    mapping(address => bool) public checkUsers;\n    \n    event NewCropFromFarmer(\n        uint256 indexed cropId\n    );\n    \n    \n    event NewCrop(\n        uint256 indexed cropId,\n        uint256 indexed quantity,\n        uint256 indexed remainingQuantity\n    );\n    \n    event NewTransaction(\n        uint256 indexed cropId,\n        uint256 indexed quantity,\n        address indexed owner\n    );\n    \n    function releaseStockFarmer(uint256 quantity, uint256 price) public {\n        Crop memory crop = Crop(msg.sender,quantity, price,cropCount);\n        crops[cropCount] = crop;\n        emit NewCropFromFarmer(cropCount++);\n    }\n    \n    function releaseStock(uint256 quantity,uint256 price) public{\n        require(checkUsers[msg.sender] == true,\"Not sufficient Stocks to trade\");\n        User storage userFromList = users[msg.sender];\n        require(quantity<=userFromList.quantity,\"Not sufficient quantity\");\n        userFromList.quantity = userFromList.quantity - quantity;\n        Crop memory crop = Crop(msg.sender,quantity,price,cropCount);\n        crops[cropCount] = crop;\n        cropCount++;\n        emit NewCrop(cropCount,quantity,userFromList.quantity);\n    }\n    \n    function purchaseStock(uint256 cropid, uint256 quantity) public payable{\n        Crop storage crop = crops[cropid];\n        require(\n            quantity <= crop.quantity,\n            \"Not enough quantity\"\n        );\n        \n        // require(\n        //     msg.value == crop.price * quantity,\n        //     \"Not enough balance\"\n        // );\n        \n        require(msg.sender != crop.owner,\"Seller cannot be buyer\");\n        \n        _sendFunds(crop.owner, msg.value);\n        refilStock(cropid, quantity);\n    }\n    \n    function refilStock(uint256 cropid, uint256 quantity) internal {\n        trasanctions[transactionId] = Transaction(cropid,msg.sender,quantity);\n\n        if(!checkUsers[msg.sender]){\n            User memory acc = User(quantity,msg.sender);\n            userAccts[userCount] = acc;\n            userCount++;\n            users[msg.sender] = acc;\n            checkUsers[msg.sender] = true;\n        }else{\n            User storage userFromList = users[msg.sender];\n            userFromList.quantity = userFromList.quantity + quantity;\n        }\n        \n        Crop storage crop = crops[cropid];\n        crop.quantity = crop.quantity - quantity;\n        \n        if(checkUsers[crop.owner]){\n            User storage userFromList = users[crop.owner];\n            userFromList.quantity = userFromList.quantity-quantity;\n            emit NewTransaction(cropid, userFromList.quantity,msg.sender);\n        }\n        \n    }\n    \n    function _sendFunds(address rec, uint256 value) internal{\n        address(uint160(rec)).transfer(value);\n    }\n    \n}\n",
  "sourcePath": "/home/yash/Documents/GitHub/starter_kit/src/contracts/CropMarket.sol",
  "compiler": {
    "name": "solc",
    "version": "0.5.0+commit.1d4f565a.Emscripten.clang"
  },
  "schemaVersion": "3.0.2",
  "updatedAt": "2019-12-22T11:30:10.141Z",
  "devdoc": {
    "methods": {}
  },
  "userdoc": {
    "methods": {}
  }
}